:100000000C942A000C943F000C943F000C943F0089
:100010000C943F000C943F000C943F000C943F0064
:100020000C943F000C943F000C943F000C943F0054
:100030000C943F000C943F000C943F000C943F0044
:100040000C943F000C943F000C943F000C943F0034
:100050000C943F0011241FBECFE5D8E0DEBFCDBF1A
:1000600010E0A0E6B0E0E4E3FCE002C005900D92F1
:10007000AA38B107D9F70E94EC020C9418060C9428
:100080000000823419F118F4813439F00895833472
:10009000B1F1843409F44CC00895413059F42AB3C5
:1000A00081E090E002C0880F991F6A95E2F7822BE9
:1000B0008ABB08952AB381E090E002C0880F991F9F
:1000C0006A95E2F7809582238ABB0895413059F4FE
:1000D00027B381E090E002C0880F991F6A95E2F78C
:1000E000822B87BB089527B381E090E002C0880F80
:1000F000991F6A95E2F78095822387BB0895413066
:1001000059F424B381E090E002C0880F991F6A95EA
:10011000E2F7822B84BB089524B381E090E002C013
:10012000880F991F6A95E2F78095822384BB089512
:10013000413059F421B381E090E002C0880F991F4B
:100140006A95E2F7822B81BB089521B381E090E0AC
:1001500002C0880F991F6A95E2F78095822381BBC0
:100160000895823419F118F4813439F008958334F4
:10017000B1F1843409F44CC00895413059F42BB3E3
:1001800081E090E002C0880F991F6A95E2F7822B08
:100190008BBB08952BB381E090E002C0880F991FBC
:1001A0006A95E2F7809582238BBB0895413059F41C
:1001B00028B381E090E002C0880F991F6A95E2F7AA
:1001C000822B88BB089528B381E090E002C0880F9D
:1001D000991F6A95E2F78095822388BB0895413084
:1001E00059F425B381E090E002C0880F991F6A9509
:1001F000E2F7822B85BB089525B381E090E002C031
:10020000880F991F6A95E2F78095822385BB089530
:10021000413059F422B381E090E002C0880F991F69
:100220006A95E2F7822B82BB089522B381E090E0C9
:1002300002C0880F991F6A95E2F78095822382BBDE
:1002400008956295607F823479F018F4813431F03A
:100250000895833479F0843499F008958BB38F70C6
:100260008BBB8BB3862B8BBB88B38F7088BB88B35B
:10027000862B88BB85B38F7085BB85B3862B85BBEA
:1002800082B38F7082BB82B3682B62BB089541E05A
:1002900060E082E40E94B1008FE39FE10197F1F7F3
:1002A00000C0000040E060E082E40E94B1008FE303
:1002B0009FE10197F1F700C000000895CF93C82F88
:1002C000682F62956F7081E40E94210140E061E037
:1002D00082E40E94B1000E9447016C2F81E40E94D9
:1002E000210140E061E082E40E94B1000E944701E8
:1002F0008FE99FE00197F1F700C00000CF910895CA
:100300002FEF83EC99E0215080409040E1F700C04E
:10031000000041E064E081E40E94410041E065E0CA
:1003200081E40E94410041E066E081E40E944100D6
:1003300041E067E081E40E94410041E060E082E446
:100340000E94410041E062E082E40E94410041E0FD
:1003500061E082E40E94410040E062E082E40E94A9
:10036000B10082E00E945E018FE39CE90197F1F702
:1003700000C0000088E20E945E018FE99FE00197C3
:10038000F1F700C000008CE00E945E018FE99FE061
:100390000197F1F700C0000081E00E945E018FE349
:1003A0009CE90197F1F700C0000086E00E945E0121
:1003B0008FE99FE00197F1F700C000000895CF9307
:1003C000C82F682F62956F7081E40E94210141E07F
:1003D00061E082E40E94B1000E9447016C2F81E439
:1003E0000E94210141E061E082E40E94B1000E948C
:1003F00047018FE99FE00197F1F700C00000CF911E
:100400000895CF93DF93EC0103C00E94DF01219692
:1004100088818111FACFDF91CF91089581E00E9408
:100420005E018FE39CE90197F1F700C00000089599
:100430008F929F92AF92BF92EF92FF920F931F9372
:10044000CF93DF9304C0685E734081099109683ED1
:1004500023E0720781059105B0F7643671058105C7
:100460009105E0F024E630E040E050E00E9487058E
:1004700049015A01E62EF72E082F192F2AE030E005
:10048000C0E0D0E0AE01C501B4010E94CC05CE01B0
:100490000E9401026E2D7F2D802F912F6A307105F1
:1004A00081059105E0F02AE030E040E050E00E9454
:1004B000870549015A01E62EF72E082F192F2AE049
:1004C00030E0C0E0D0E0AE01C501B4010E94CC052F
:1004D000CE010E9401026E2D7F2D802F912F2AE0E8
:1004E00030E0C0E0D0E0AE010E94CC05CE010E9419
:1004F0000102DF91CF911F910F91FF90EF90BF907C
:10050000AF909F908F900895EF92FF920F931F935B
:10051000CF93DF93EC017B0180E80E945E0180E6CF
:1005200090E00E9401029E01369527953695279509
:1005300036952795A5ECB0E20E94A9059295829583
:100540008F7089279F708927BC0180E090E00E940E
:10055000180283E690E00E94010288E690E00E9483
:100560000102B70180E090E00E9418028BE690E063
:100570000E94010280EC0E945E0182E790E00E94EE
:100580000102D0E01CC00A31110530F08DE20E945A
:10059000DF01095111090CC00115110531F08DE27F
:1005A0000E94DF0100E010E003C08FE50E94DF0140
:1005B000CF5F02C08701C0E0C43028F3DF5FD330D3
:1005C000C8F382E790E00E940102DF91CF911F9172
:1005D0000F91FF90EF9008950E94610380E00E94C8
:1005E0006B0362E382E00E94AA030E94800185E718
:1005F00090E00E9401021FBC88B7806288BF81E43E
:100600008EBD08B605FEFDCF26B537B588B780622A
:1006100088BF81E08EBD08B605FEFDCF66B577B513
:1006200088B7806288BF81E48EBD08B605FEFDCF25
:10063000C6B4D7B488B7806288BF1EBC26173707F8
:10064000C8F56C157D05B0F5621B730BC21AD30A91
:1006500080E090E00E9478044B015C01E12CF12CD9
:10066000C701B6010E9478049B01AC01C501B40129
:100670000E94D70320E030E048EC52E40E940605D7
:100680000E9449044B015C0160E074E284EF90E059
:10069000A70196010E948705B401C9010E94840246
:1006A0002FEF80E792E0215080409040E1F700C0BA
:1006B0000000A1CF0E940E028DE790E00E9401028F
:1006C0009ACF81B3806881BB85B5806485BD85B5CF
:1006D000886085BD08958230F9F028F4882341F0C0
:1006E000813081F00895833009F1843049F1089513
:1006F00085B5816085BD85B58D7F85BD85B58B7FD1
:1007000085BD089585B58E7F85BD85B5826085BD23
:1007100085B58B7F85BD089585B5816085BD85B51F
:10072000826085BD85B58B7F85BD089585B58E7F3B
:1007300085BD85B58D7F85BD85B5846085BD0895F2
:1007400085B5816085BD85B58D7F85BD85B58460A6
:1007500085BD0895813061F018F08230C9F00895A8
:1007600085B58F7E85BD85B58F7D85BD13BC08950C
:1007700085B5806185BD85B5806285BD962F80E099
:1007800064E670E00E9473058EEF861B83BD0895BA
:1007900085B58F7E85BD85B5806285BD962F80E04D
:1007A00064E670E00E947305615063BD08950E9485
:1007B000EB030C94CC040E94C50458F00E94BE04C4
:1007C00040F029F45F3F29F00C94B50451110C94CA
:1007D00000050C94BB040E94DD0468F39923B1F377
:1007E000552391F3951B550BBB27AA276217730757
:1007F000840738F09F5F5F4F220F331F441FAA1FEB
:10080000A9F335D00E2E3AF0E0E832D091505040A6
:10081000E695001CCAF72BD0FE2F29D0660F771F54
:10082000881FBB1F261737074807AB07B0E809F03A
:10083000BB0B802DBF01FF2793585F4F3AF09E3FBF
:10084000510578F00C94B5040C9400055F3FE4F377
:10085000983ED4F3869577956795B795F7959F5F02
:10086000C9F7880F911D9695879597F90895E1E04E
:10087000660F771F881FBB1F621773078407BA07AD
:1008800020F0621B730B840BBA0BEE1F88F7E09508
:1008900008950E94E50488F09F5798F0B92F992792
:1008A000B751B0F0E1F0660F771F881F991F1AF05B
:1008B000BA95C9F714C0B13091F00E94FF04B1E0BD
:1008C00008950C94FF04672F782F8827B85F39F0BC
:1008D000B93FCCF3869577956795B395D9F73EF4F4
:1008E00090958095709561957F4F8F4F9F4F08959C
:1008F000E89409C097FB3EF49095809570956195BA
:100900007F4F8F4F9F4F9923A9F0F92F96E9BB276F
:100910009395F695879577956795B795F111F8CFEB
:10092000FAF4BB0F11F460FF1BC06F5F7F4F8F4F56
:100930009F4F16C0882311F096E911C0772321F04C
:100940009EE8872F762F05C0662371F096E8862FE4
:1009500070E060E02AF09A95660F771F881FDAF73B
:10096000880F9695879597F9089597F99F6780E87E
:1009700070E060E008959FEF80EC089500240A94F1
:100980001616170618060906089500240A9412166A
:100990001306140605060895092E0394000C11F49D
:1009A000882352F0BB0F40F4BF2B11F460FF04C04A
:1009B0006F5F7F4F8F4F9F4F089557FD9058440FA3
:1009C000551F59F05F3F71F04795880F97FB991FAE
:1009D00061F09F3F79F0879508951216130614066B
:1009E000551FF2CF4695F1DF08C0161617061806F8
:1009F000991FF1CF86957105610508940895E894D3
:100A0000BB2766277727CB0197F908950E94190520
:100A10000C94CC040E94BE0438F00E94C50420F05F
:100A2000952311F00C94B5040C94BB0411240C9480
:100A300000050E94DD0470F3959FC1F3950F50E00F
:100A4000551F629FF001729FBB27F00DB11D639F80
:100A5000AA27F00DB11DAA1F649F6627B00DA11D26
:100A6000661F829F2227B00DA11D621F739FB00DCC
:100A7000A11D621F839FA00D611D221F749F33273C
:100A8000A00D611D231F849F600D211D822F762FD5
:100A90006A2F11249F5750409AF0F1F088234AF0B2
:100AA000EE0FFF1FBB1F661F771F881F915050401E
:100AB000A9F79E3F510580F00C94B5040C940005F5
:100AC0005F3FE4F3983ED4F3869577956795B795A5
:100AD000F795E7959F5FC1F7FE2B880F911D9695BF
:100AE000879597F9089597FB072E16F4009407D081
:100AF00077FD09D00E94B80507FC05D03EF490951B
:100B000081959F4F0895709561957F4F0895A1E25B
:100B10001A2EAA1BBB1BFD010DC0AA1FBB1FEE1F77
:100B2000FF1FA217B307E407F50720F0A21BB30BC2
:100B3000E40BF50B661F771F881F991F1A9469F73E
:100B400060957095809590959B01AC01BD01CF019A
:100B50000895A29FB001B39FC001A39F700D811D96
:100B60001124911DB29F700D811D1124911D0895B6
:100B7000AA1BBB1B51E107C0AA1FBB1FA617B707C3
:100B800010F0A61BB70B881F991F5A95A9F78095DF
:100B90009095BC01CD0108952532310520F4223015
:100BA00010F00C94D705FA011082CA010895BB27F2
:100BB0002A3051F4992342F4BDE2909580957095C6
:100BC00061957F4F8F4F9F4F0C94E705BB27FA012C
:100BD000A62F6217710581059105330B30FB66F076
:100BE000AA27660F771F881F991FAA1FA21710F048
:100BF000A21B63953850A9F7A05DAA3308F0A95D40
:100C0000A19336F7B111B1931082CA010C94080672
:100C1000DC01FC01672F71917723E1F7329704C063
:100C20007C916D9370836291AE17BF07C8F30895EE
:040C3000F894FFCF66
:100C3400463D006B487A2000443D002520202020BA
:100C440020005F5F0052454144494E47006F757470
:0A0C5400206F662072616E67650074
:00000001FF
