:100000000C942A000C9447000C9447000C94470071
:100010000C9447000C9447000C9447000C94470044
:100020000C9447000C9447000C9447000C94470034
:100030000C9447000C9447000C9447000C94470024
:100040000C9447000C9447000C9447000C94470014
:100050000C94470011241FBECFE5D8E0DEBFCDBF12
:1000600010E0A0E6B0E0E0E0F8E002C005900D92FC
:10007000AE36B107D9F720E0AEE6B0E001C01D9280
:10008000AF36B207E1F70E9462020C94FE030C94B3
:10009000000087B1806487B987B1806887B986B16D
:1000A000806886B986B1846086B986B1826086B977
:1000B00086B18E7F86B908958032A8F497B1907E7C
:1000C00097B997B1892B87B986B1806486B9349B7B
:1000D000FECF86B1806186B924B185B190E0982FBA
:1000E0008827822B08950895823419F118F48134F9
:1000F00039F008958334B1F1843409F44CC0089583
:10010000413059F42AB381E090E002C0880F991F72
:100110006A95E2F7822B8ABB08952AB381E090E0CA
:1001200002C0880F991F6A95E2F7809582238ABBE7
:100130000895413059F427B381E090E002C0880F60
:10014000991F6A95E2F7822B87BB089527B381E058
:1001500090E002C0880F991F6A95E2F7809582238C
:1001600087BB0895413059F424B381E090E002C088
:10017000880F991F6A95E2F7822B84BB089524B3F8
:1001800081E090E002C0880F991F6A95E2F78095A0
:10019000822384BB0895413059F421B381E090E07B
:1001A00002C0880F991F6A95E2F7822B81BB0895E0
:1001B00021B381E090E002C0880F991F6A95E2F7B1
:1001C0008095822381BB0895823419F118F481341B
:1001D00039F008958334B1F1843409F44CC00895A2
:1001E000413059F42BB381E090E002C0880F991F91
:1001F0006A95E2F7822B8BBB08952BB381E090E0E8
:1002000002C0880F991F6A95E2F7809582238BBB05
:100210000895413059F428B381E090E002C0880F7E
:10022000991F6A95E2F7822B88BB089528B381E075
:1002300090E002C0880F991F6A95E2F780958223AB
:1002400088BB0895413059F425B381E090E002C0A5
:10025000880F991F6A95E2F7822B85BB089525B315
:1002600081E090E002C0880F991F6A95E2F78095BF
:10027000822385BB0895413059F422B381E090E098
:1002800002C0880F991F6A95E2F7822B82BB0895FE
:1002900022B381E090E002C0880F991F6A95E2F7CF
:1002A0008095822382BB08956295607F823479F0C5
:1002B00018F4813431F00895833479F0843499F05E
:1002C00008958BB38F708BBB8BB3862B8BBB88B39E
:1002D0008F7088BB88B3862B88BB85B38F7085BB36
:1002E00085B3862B85BB82B38F7082BB82B3682BAC
:1002F00062BB089541E060E082E40E94E4008FE97F
:100300009FE00197F1F700C0000040E060E082E468
:100310000E94E4008FE99FE00197F1F700C0000020
:100320000895CF93C82F682F62956F7081E40E9463
:10033000540140E061E082E40E94E4000E947A01FE
:100340006C2F81E40E94540140E061E082E40E944D
:10035000E4000E947A018FEC97E00197F1F700C06A
:100360000000CF9108952FEF81EE94E0215080405E
:100370009040E1F700C0000041E064E081E40E94A9
:10038000740041E065E081E40E94740041E066E0B1
:1003900081E40E94740041E067E081E40E947400FF
:1003A00041E060E082E40E94740041E062E082E4A7
:1003B0000E94740041E061E082E40E94740040E029
:1003C00062E082E40E94E40082E00E9491018FE1F9
:1003D0009EE40197F1F700C0000088E20E949101BD
:1003E0008FEC97E00197F1F700C000008CE00E94CD
:1003F00091018FEC97E00197F1F700C0000081E0D8
:100400000E9491018FE19EE40197F1F700C0000086
:1004100086E00E9491018FEC97E00197F1F700C010
:1004200000000895CF93C82F682F62956F7081E404
:100430000E94540141E061E082E40E94E4000E94D5
:100440007A016C2F81E40E94540141E061E082E472
:100450000E94E4000E947A018FEC97E00197F1F787
:1004600000C00000CF910895CF93DF93EC0103C04B
:100470000E941202219688818111FACFDF91CF91DB
:1004800008959FEF980F923070F4613170F46623F5
:1004900071F0813019F42FE7260F0AC0823041F441
:1004A0002FEB260F05C020E803C020E801C020E89C
:1004B000822F0E9491018FEC97E00197F1F700C025
:1004C000000008950E94B3010E94490080E690E078
:1004D0000E94340280E00E945C00BC0180E090E059
:1004E0000E94030320E030E040E85EE30E946903DD
:1004F0000E94D40260936E006A3030F56DE070E0C7
:1005000081E090E00E94410280916E009DEC899F05
:10051000912D1124969596959695990F292F220F36
:10052000220F920F891B90E0C0960E9412028FED5D
:1005300090E00E94120283E690E00E94120280E2A4
:1005400090E00E941202C6CF643620F66DE070E0A3
:1005500081E090E00E94410280916E00CDEC8C9F82
:10056000812D112486958695869590E0C0960E94EF
:10057000120280916E008C9FC12D1124C695C695E4
:10058000C695CC0F9C2F990F990FC90F8C1B90E02B
:10059000C0960E9412028FED90E00E94120283E644
:1005A00090E00E94120296CF0E94480388F09F5765
:1005B00098F0B92F9927B751B0F0E1F0660F771F87
:1005C000881F991F1AF0BA95C9F714C0B13091F07D
:1005D0000E946203B1E008950C946203672F782FA4
:1005E0008827B85F39F0B93FCCF386957795679542
:1005F000B395D9F73EF490958095709561957F4FAE
:100600008F4F9F4F0895E89409C097FB3EF4909553
:100610008095709561957F4F8F4F9F4F9923A9F0DB
:10062000F92F96E9BB279395F6958795779567956A
:10063000B795F111F8CFFAF4BB0F11F460FF1BC0AE
:100640006F5F7F4F8F4F9F4F16C0882311F096E941
:1006500011C0772321F09EE8872F762F05C06623EF
:1006600071F096E8862F70E060E02AF09A95660FA8
:10067000771F881FDAF7880F9695879597F9089561
:1006800057FD9058440F551F59F05F3F71F0479543
:10069000880F97FB991F61F09F3F79F08795089528
:1006A000121613061406551FF2CF4695F1DF08C047
:1006B000161617061806991FF1CF86957105610564
:1006C00008940895E894BB2766277727CB0197F90C
:1006D00008950E947C030C94ED030E94DF0338F020
:1006E0000E94E60320F0952311F00C94D6030C949D
:1006F000DC0311240C9463030E94400370F3959F64
:10070000C1F3950F50E0551F629FF001729FBB2708
:10071000F00DB11D639FAA27F00DB11DAA1F649FA4
:100720006627B00DA11D661F829F2227B00DA11D57
:10073000621F739FB00DA11D621F839FA00D611DDD
:10074000221F749F3327A00D611D231F849F600DFE
:10075000211D822F762F6A2F11249F5750409AF027
:10076000F1F088234AF0EE0FFF1FBB1F661F771FB3
:10077000881F91505040A9F79E3F510580F00C947E
:10078000D6030C9463035F3FE4F3983ED4F386955D
:1007900077956795B795F795E7959F5FC1F7FE2B1E
:1007A000880F911D9695879597F9089597F99F67FA
:1007B00080E870E060E008959FEF80EC08950024E9
:1007C0000A941616170618060906089500240A94B6
:1007D00012161306140605060895092E0394000C3C
:1007E00011F4882352F0BB0F40F4BF2B11F460FFCB
:1007F00004C06F5F7F4F8F4F9F4F0895F894FFCFD6
:0E08000054656D70657261747572653D00001F
:00000001FF
