S01700004763634170706C69636174696F6E312E737265635B
S11300000C942A000C9447000C9447000C9447006D
S11300100C9447000C9447000C9447000C94470040
S11300200C9447000C9447000C9447000C94470030
S11300300C9447000C9447000C9447000C94470020
S11300400C9447000C9447000C9447000C94470010
S11300500C94470011241FBECFE5D8E0DEBFCDBF0E
S113006010E0A0E6B0E0E0E6F5E002C005900D92F5
S1130070A238B107D9F720E0A2E8B0E001C01D9290
S1130080A238B207E1F70E9437020C94AE020C9436
S11300900000823419F118F4813439F0089583345E
S11300A0B1F1843409F44CC00895413059F42AB3B1
S11300B081E090E002C0880F991F6A95E2F7822BD5
S11300C08ABB08952AB381E090E002C0880F991F8B
S11300D06A95E2F7809582238ABB0895413059F4EA
S11300E027B381E090E002C0880F991F6A95E2F778
S11300F0822B87BB089527B381E090E002C0880F6C
S1130100991F6A95E2F78095822387BB0895413051
S113011059F424B381E090E002C0880F991F6A95D6
S1130120E2F7822B84BB089524B381E090E002C0FF
S1130130880F991F6A95E2F78095822384BB0895FE
S1130140413059F421B381E090E002C0880F991F37
S11301506A95E2F7822B81BB089521B381E090E098
S113016002C0880F991F6A95E2F78095822381BBAC
S11301700895823419F118F4813439F008958334E0
S1130180B1F1843409F44CC00895413059F42BB3CF
S113019081E090E002C0880F991F6A95E2F7822BF4
S11301A08BBB08952BB381E090E002C0880F991FA8
S11301B06A95E2F7809582238BBB0895413059F408
S11301C028B381E090E002C0880F991F6A95E2F796
S11301D0822B88BB089528B381E090E002C0880F89
S11301E0991F6A95E2F78095822388BB0895413070
S11301F059F425B381E090E002C0880F991F6A95F5
S1130200E2F7822B85BB089525B381E090E002C01C
S1130210880F991F6A95E2F78095822385BB08951C
S1130220413059F422B381E090E002C0880F991F55
S11302306A95E2F7822B82BB089522B381E090E0B5
S113024002C0880F991F6A95E2F78095822382BBCA
S113025008956295607F823479F018F4813431F026
S11302600895833479F0843499F008958BB38F70B2
S11302708BBB8BB3862B8BBB88B38F7088BB88B347
S1130280862B88BB85B38F7085BB85B3862B85BBD6
S113029082B38F7082BB82B3682B62BB089541E046
S11302A060E082E40E94B9008FE99FE00197F1F7D2
S11302B000C0000040E060E082E40E94B9008FE9E1
S11302C09FE00197F1F700C000000895CF93C82F75
S11302D0682F62956F7081E40E94290140E061E01B
S11302E082E40E94B9000E944F016C2F81E40E94B5
S11302F0290140E061E082E40E94B9000E944F01BC
S11303008FEC97E00197F1F700C00000CF910895BA
S11303102FEF81EE94E0215080409040E1F700C03F
S1130320000041E064E081E40E94490041E065E0AE
S113033081E40E94490041E066E081E40E944900B2
S113034041E067E081E40E94490041E060E082E42A
S11303500E94490041E062E082E40E94490041E0D9
S113036061E082E40E94490040E062E082E40E948D
S1130370B90082E00E9466018FE19EE40197F1F7E3
S113038000C0000088E20E9466018FEC97E00197AC
S1130390F1F700C000008CE00E9466018FEC97E04A
S11303A00197F1F700C0000081E00E9466018FE12F
S11303B09EE40197F1F700C0000086E00E94660108
S11303C08FEC97E00197F1F700C000000895CF93F8
S11303D0C82F682F62956F7081E40E94290141E063
S11303E061E082E40E94B9000E944F016C2F81E415
S11303F00E94290141E061E082E40E94B9000E9468
S11304004F018FEC97E00197F1F700C00000CF9106
S11304100895CF93DF93EC0103C00E94E701219676
S113042088818111FACFDF91CF9108959FEF980FC2
S1130430923070F4613170F4662371F0813019F4F4
S11304402FE7260F0AC0823041F42FEB260F05C098
S113045020E803C020E801C020E8822F0E94660142
S11304608FEC97E00197F1F700C0000008950E9417
S1130470930280916000909161000E9482020E9428
S11304808801809160009091610044E6489F90014A
S1130490499F300D11243093610020936000A1E83E
S11304A0B0E80E949F028C01000F012F001F110B66
S11304B011950436F1F082E690E00E9409026CE0A6
S11304C081E00E941602CDEC0C9FC12D1124C6952B
S11304D0C695C69580E38C0F0E94E701CC0F8C2F44
S11304E0880F880FC80F802F8C1B805D0E94E70146
S11304F008C081E790E00E9409026CE081E00E945C
S11305001602FFCF97B3986097BB93B7906493BFDD
S113051093B7986093BF8CBF83B7806183BF83B761
S1130520806283BF089583B7816083BF83B78D7F63
S113053083BF83B7846083BF80E090E00895A29F67
S1130540B001B39FC001A39F700D811D1124911DA3
S1130550B29F700D811D1124911D0895F894FFCF51
S1130560800044757479206379636C653D2020258F
S11305700044757479206379636C653D31303025AE
S1050580000075
S9030000FC
