:100000000C942A000C9447000C9447000C94470071
:100010000C9447000C9413060C9447000C94470072
:100020000C9447000C9447000C9447000C94470034
:100030000C9447000C9447000C9447000C94470024
:100040000C9447000C9447000C9447000C94470014
:100050000C94470011241FBECFE5D8E0DEBFCDBF12
:1000600010E0A0E6B0E0EAEBFCE002C005900D92E3
:10007000AC3DB107D9F720E0ACEDB0E001C01D9276
:10008000A23EB207E1F70E94D2030C945B060C94E7
:100090000000823419F118F4813439F00895833462
:1000A000B1F1843409F44CC00895413059F42AB3B5
:1000B00081E090E002C0880F991F6A95E2F7822BD9
:1000C0008ABB08952AB381E090E002C0880F991F8F
:1000D0006A95E2F7809582238ABB0895413059F4EE
:1000E00027B381E090E002C0880F991F6A95E2F77C
:1000F000822B87BB089527B381E090E002C0880F70
:10010000991F6A95E2F78095822387BB0895413055
:1001100059F424B381E090E002C0880F991F6A95DA
:10012000E2F7822B84BB089524B381E090E002C003
:10013000880F991F6A95E2F78095822384BB089502
:10014000413059F421B381E090E002C0880F991F3B
:100150006A95E2F7822B81BB089521B381E090E09C
:1001600002C0880F991F6A95E2F78095822381BBB0
:100170000895823419F118F4813439F008958334E4
:10018000B1F1843409F44CC00895413059F42BB3D3
:1001900081E090E002C0880F991F6A95E2F7822BF8
:1001A0008BBB08952BB381E090E002C0880F991FAC
:1001B0006A95E2F7809582238BBB0895413059F40C
:1001C00028B381E090E002C0880F991F6A95E2F79A
:1001D000822B88BB089528B381E090E002C0880F8D
:1001E000991F6A95E2F78095822388BB0895413074
:1001F00059F425B381E090E002C0880F991F6A95F9
:10020000E2F7822B85BB089525B381E090E002C020
:10021000880F991F6A95E2F78095822385BB089520
:10022000413059F422B381E090E002C0880F991F59
:100230006A95E2F7822B82BB089522B381E090E0B9
:1002400002C0880F991F6A95E2F78095822382BBCE
:1002500008958234E9F018F4813431F055C08334C4
:1002600059F18434E9F150C049B381E090E09C0138
:10027000062E02C0220F331F0A94E2F7842F90E06B
:100280008223932302C0959587956A95E2F7089596
:1002900046B381E090E09C01062E02C0220F331F7E
:1002A0000A94E2F7842F90E08223932302C095956D
:1002B00087956A95E2F7089543B381E090E09C0149
:1002C000062E02C0220F331F0A94E2F7842F90E01B
:1002D0008223932302C0959587956A95E2F7089546
:1002E00040B381E090E09C01062E02C0220F331F34
:1002F0000A94E2F7842F90E08223932302C095951D
:1003000087956A95E2F7089580E00895823419F19F
:1003100018F4813439F008958334B1F1843409F448
:100320004CC00895413059F42BB381E090E002C0F5
:10033000880F991F6A95E2F7822B8BBB08952BB328
:1003400081E090E002C0880F991F6A95E2F78095DE
:1003500082238BBB0895413059F428B381E090E0AB
:1003600002C0880F991F6A95E2F7822B88BB089517
:1003700028B381E090E002C0880F991F6A95E2F7E8
:100380008095822388BB0895413059F425B381E0DC
:1003900090E002C0880F991F6A95E2F7822B85BB17
:1003A000089525B381E090E002C0880F991F6A95F7
:1003B000E2F78095822385BB0895413059F422B33A
:1003C00081E090E002C0880F991F6A95E2F7822BC6
:1003D00082BB089522B381E090E002C0880F991F8C
:1003E0006A95E2F78095822382BB0895823459F0A2
:1003F00018F4813431F00895833439F0843439F0BD
:1004000008956ABB089567BB089564BB089561BBF6
:100410000895823459F018F4813431F0089583340A
:1004200039F0843439F008956BBB089568BB0895A2
:1004300065BB089562BB08956295607F823479F050
:1004400018F4813431F00895833479F0843499F0CC
:1004500008958BB38F708BBB8BB3862B8BBB88B30C
:100460008F7088BB88B3862B88BB85B38F7085BBA4
:1004700085B3862B85BB82B38F7082BB82B3682B1A
:1004800062BB089541E060E084E40E94490041E0DD
:1004900061E084E40E94490041E062E084E40E945B
:1004A000490041E063E084E40E94490040E064E0E8
:1004B00084E40E94490040E065E084E40E94490031
:1004C00040E066E084E40E94490040E067E084E4A4
:1004D0000E94490041E064E084E40E94860141E01A
:1004E00065E084E40E94860141E066E084E40E94C5
:1004F000860141E067E084E40E9486010895FF924E
:100500000F931F93CF93DF93CDB7DEB760970FB6EE
:10051000F894DEBF0FBECDBF80E1E0E6F0E0DE0183
:10052000119601900D928A95E1F7FF24FA9400E06C
:1005300038C041E060E084E40E94B90041E061E03D
:1005400084E40E94B90041E062E084E40E94B900C2
:1005500041E063E084E40E94B90040E0602F84E45D
:100560000E94B90010E018C064E0610F84E40E94AA
:100570002901811110C0E02FF0E0EE0FFF1FEE0FF8
:10058000FF1F81E090E08C0F9D1FE80FF91FE10F26
:10059000F11DF08003C01F5F143030F3FF2019F00D
:1005A0000F5F043030F28F2D60960FB6F894DEBFE7
:1005B0000FBECDBFDF91CF911F910F91FF90089596
:1005C00041E060E081E40E94B9008FE99FE001977B
:1005D000F1F700C0000040E060E081E40E94B90053
:1005E0008FE99FE00197F1F700C000000895CF93D5
:1005F000C82F682F62956F7081E40E941C0240E052
:1006000062E081E40E94B9000E94E0026C2F81E464
:100610000E941C0240E062E081E40E94B9000E9456
:10062000E0028FEC97E00197F1F700C00000CF9156
:1006300008952FEF81EE94E0215080409040E1F743
:1006400000C0000041E064E081E40E94490041E014
:1006500065E081E40E94490041E066E081E40E9497
:10066000490041E067E081E40E94490041E060E028
:1006700081E40E94490041E061E081E40E94490078
:1006800041E062E081E40E94490040E061E081E4F1
:100690000E94B90082E00E94F7028FE19EE4019778
:1006A000F1F700C0000088E20E94F7028FEC97E0AB
:1006B0000197F1F700C000008EE00E94F7028FEC76
:1006C00097E00197F1F700C0000081E00E94F70277
:1006D0008FE19EE40197F1F700C0000086E00E94E0
:1006E000F7028FEC97E00197F1F700C00000089542
:1006F000CF93C82F682F62956F7081E40E941C020F
:1007000041E062E081E40E94B9000E94E0026C2FA7
:1007100081E40E941C0241E062E081E40E94B90091
:100720000E94E0028FEC97E00197F1F700C0000013
:10073000CF910895CF93DF93EC0103C00E9478031B
:10074000219688818111FACFDF91CF91089581E0C0
:100750000E94F7028FE19EE40197F1F700C00000CC
:1007600008959FEF980F923070F4613170F4662312
:1007700071F0813019F42FE7260F0AC0823041F45E
:100780002FEB260F05C020E803C020E801C020E8B9
:10079000822F0E94F7028FEC97E00197F1F700C0DB
:1007A000000008950E9419030E94420282E40E9400
:1007B000240641E060E083E40E94490041E061E0FA
:1007C00083E40E94490041E062E083E40E94490022
:1007D00041E063E083E40E94490041E064E083E497
:1007E0000E94490041E065E083E40E94490084E8FA
:1007F00090E00E949A0361E082E00E94B10380E9E8
:1008000090E00E949A030E944D060E947F0280930E
:10081000E1008F3F09F404C1813309F0E4C00E9474
:10082000A7038AE990E00E949A0367E081E00E94B2
:10083000B1032FEF84E39CE0215080409040E1F72A
:1008400000C000000E947F028093DF008F3FD1F341
:100850000E9478032FEF82E597E02150804090407E
:10086000E1F700C000000E947F028093E0008F3F0C
:10087000D1F30E9478032FEF82E597E0215080406A
:100880009040E1F700C000008091DF0090E0C09749
:10089000880F982F990F990F890F9091E000890F79
:1008A00080538093DD000E94A7032FEF82E597E03D
:1008B000215080409040E1F700C0000083EA90E0C2
:1008C0000E949A0369E081E00E94B1030E947F02C6
:1008D0008093DF008F3FD1F30E9478032FEF82E5F2
:1008E00097E0215080409040E1F700C000000E9456
:1008F0007F028093E0008F3FD1F30E9478032FEFB7
:1009000082E597E0215080409040E1F700C0000070
:100910008091DF0090E0C097880F982F990F990F72
:10092000890F9091E000890F80538093DC002FEFB6
:1009300082E597E0215080409040E1F700C0000040
:100940000E94A7038EEA90E00E949A0369E081E08A
:100950000E94B1030E947F028093DF008F3FD1F39A
:100960000E9478032FEF82E597E02150804090406D
:10097000E1F700C000000E947F028093E0008F3FFB
:10098000D1F30E9478032FEF82E597E02150804059
:100990009040E1F700C000008091DF0090E0C09738
:1009A000880F982F990F990F890F9091E000890F68
:1009B00080538093DE002FEF82E597E02150804046
:1009C0009040E1F700C000000E94A70389EB90E08F
:1009D0000E949A0361E082E00E94B10384EC90E0FF
:1009E0000E949A031DC00E94A7038EEC90E00E9413
:1009F0009A032FEF89E698E1215080409040E1F77B
:100A000000C000000E94A70389EB90E00E949A03B7
:100A100061E082E00E94B10384EC90E00E949A03BE
:100A200085B3826085BB85B3846085BB85B38860F0
:100A300085BB85B3806185BB85B3806285BB85B38B
:100A40008E7F85BB6091DE00CDEC6C9F812D1124E3
:100A5000869586958695880F982F990F990F890FFF
:100A6000681B82E40E9428068FE097E20197F1F765
:100A700000C0000085B3816085BB85B3846085BB01
:100A800085B3886085BB85B3806185BB85B3806293
:100A900085BB85B38D7F85BB6091DE006C9F612D2A
:100AA000112466956695669582E40E9428068FE07B
:100AB00097E20197F1F700C0000085B3816085BB24
:100AC00085B3826085BB85B3886085BB85B3806153
:100AD00085BB85B3806285BB85B38B7F85BB609109
:100AE000DC006C9F812D1124869586958695880F54
:100AF000982F990F990F890F681B82E40E9428068E
:100B00008FE097E20197F1F700C0000085B38160A4
:100B100085BB85B3826085BB85B3846085BB85B3A7
:100B2000806185BB85B3806285BB85B3877F85BBCC
:100B30006091DC006C9F612D112466956695669529
:100B400082E40E9428068FE097E20197F1F700C047
:100B5000000085B3816085BB85B3826085BB85B3AA
:100B6000846085BB85B3886085BB85B3806285BBA7
:100B700085B38F7E85BB6091DD006C9F812D112434
:100B8000869586958695880F982F990F990F890FCE
:100B9000681B82E40E9428068FE097E20197F1F734
:100BA00000C0000085B3816085BB85B3826085BBD2
:100BB00085B3846085BB85B3886085BB85B3806160
:100BC00085BB85B38F7D85BB6091DD006C9F612DFA
:100BD000112466956695669582E40E9428068FE04A
:100BE00097E20197F1F700C000008091DE008C339E
:100BF00039F41092DE008091DC008F5F8093DC007E
:100C00008091DC008C3339F41092DC008091DD009F
:100C10008F5F8093DD008091DD00883109F0F5CD94
:100C20001092DD00F2CD1F920F920FB60F92112499
:100C30008F938091DE008F5F8093DE008F910F9005
:100C40000FBE0F901F9018956FEF0E94F601089548
:100C5000CF93DF93CDB7DEB72A970FB6F894DEBFF8
:100C60000FBECDBF9AE0E0E7F0E0DE011196019003
:100C70000D929A95E1F7E1E0F0E0EC0FFD1FE60F31
:100C8000F11D60810E9409022A960FB6F894DEBF1A
:100C90000FBECDBFDF91CF91089582B5886082BD30
:100CA00085B5816085BD85B5846085BD789489B73B
:0A0CB000806489BF0895F894FFCF17
:100CBA003738392F3435362A3132332D41303D2BEE
:100CCA003F065B4F666D7D077F6FC0F9A4B09992AE
:100CDA0082B880905052455353203120544F2000FF
:100CEA0053455420434C4F434B00486F7572733A37
:100CFA002D2D006D696E757465733D2D2D0073651C
:100D0A00636F6E64733D2D2D0070726573732031AD
:100D1A0020746F0073657420636C6F636B00777265
:0C0D2A006F6E672063686F6963650000EE
:00000001FF
