S01700004763634170706C69636174696F6E312E737265635B
S11300000C942A000C9447000C9447000C9447006D
S11300100C9447000C9447000C9447000C94470040
S11300200C9447000C9447000C9447000C94470030
S11300300C9447000C9447000C9447000C94470020
S11300400C9447000C9447000C9447000C94470010
S11300500C94470011241FBECFE5D8E0DEBFCDBF0E
S113006010E0A0E6B0E0E2EBF7E002C005900D92EC
S1130070A437B107D9F720E0A4E7B0E001C01D928E
S1130080A837B207E1F70E94B2020C94D7030C948C
S1130090000040E00E94500008950E94300108953D
S11300A0823419F118F4813439F008958334B1F1AC
S11300B0843409F44CC00895413059F42AB381E0E2
S11300C090E002C0880F991F6A95E2F7822B8ABBE1
S11300D008952AB381E090E002C0880F991F6A95C1
S11300E0E2F7809582238ABB0895413059F427B3FF
S11300F081E090E002C0880F991F6A95E2F7822B95
S113010087BB089527B381E090E002C0880F991F50
S11301106A95E2F78095822387BB0895413059F4AC
S113012024B381E090E002C0880F991F6A95E2F73A
S1130130822B84BB089524B381E090E002C0880F31
S1130140991F6A95E2F78095822384BB0895413014
S113015059F421B381E090E002C0880F991F6A9599
S1130160E2F7822B81BB089521B381E090E002C0C5
S1130170880F991F6A95E2F78095822381BB0895C1
S1130180823419F118F4813439F008958334B1F1CB
S1130190843409F44CC00895413059F42BB381E000
S11301A090E002C0880F991F6A95E2F7822B8BBBFF
S11301B008952BB381E090E002C0880F991F6A95DF
S11301C0E2F7809582238BBB0895413059F428B31C
S11301D081E090E002C0880F991F6A95E2F7822BB4
S11301E088BB089528B381E090E002C0880F991F6E
S11301F06A95E2F78095822388BB0895413059F4CB
S113020025B381E090E002C0880F991F6A95E2F758
S1130210822B85BB089525B381E090E002C0880F4E
S1130220991F6A95E2F78095822385BB0895413032
S113023059F422B381E090E002C0880F991F6A95B7
S1130240E2F7822B82BB089522B381E090E002C0E2
S1130250880F991F6A95E2F78095822382BB0895DF
S11302608234E9F018F4813431F055C0833459F103
S11302708434E9F150C049B381E090E09C01062E3A
S113028002C0220F331F0A94E2F7842F90E08223E6
S1130290932302C0959587956A95E2F7089546B32E
S11302A081E090E09C01062E02C0220F331F0A94C5
S11302B0E2F7842F90E08223932302C095958795DB
S11302C06A95E2F7089543B381E090E09C01062E1D
S11302D002C0220F331F0A94E2F7842F90E0822396
S11302E0932302C0959587956A95E2F7089540B3E4
S11302F081E090E09C01062E02C0220F331F0A9475
S1130300E2F7842F90E08223932302C0959587958A
S11303106A95E2F7089580E008956295607F8234DB
S113032079F018F4813431F00895833479F0843409
S113033099F008958BB38F708BBB8BB3862B8BBBDB
S113034088B38F7088BB88B3862B88BB85B38F70C6
S113035085BB85B3862B85BB82B38F7082BB82B38A
S1130360682B62BB089541E060E082E40E94C00013
S11303708FE99FE00197F1F700C0000040E060E0E2
S113038082E40E94C0008FE99FE00197F1F700C06A
S113039000000895CF93C82F682F62956F7081E491
S11303A00E948D0140E061E082E40E94C0000E944E
S11303B0B3016C2F81E40E948D0140E061E082E48E
S11303C00E94C0000E94B3018FEC97E00197F1F7FF
S11303D000C00000CF9108952FEF81EE94E02150EA
S11303E080409040E1F700C0000041E064E081E417
S11303F00E94500041E065E081E40E94500041E029
S113040066E081E40E94500041E067E081E40E94DC
S1130410500041E060E082E40E94500041E062E06C
S113042082E40E94500041E061E082E40E945000B6
S113043040E062E082E40E94C00082E00E94CA01BF
S11304408FE19EE40197F1F700C0000088E20E946A
S1130450CA018FEC97E00197F1F700C000008EE02D
S11304600E94CA018FEC97E00197F1F700C00000E9
S113047081E00E94CA018FE19EE40197F1F700C078
S1130480000086E00E94CA018FEC97E00197F1F723
S113049000C000000895CF93C82F682F62956F7035
S11304A081E40E948D0141E061E082E40E94C00089
S11304B00E94B3016C2F81E40E948D0141E061E050
S11304C082E40E94C0000E94B3018FEC97E0019780
S11304D0F1F700C00000CF910895CF93DF93EC01B2
S11304E003C00E944B02219688818111FACFDF91CB
S11304F0CF9108959FEF980F923070F4613170F4AA
S1130500662371F0813019F42FE7260F0AC0823078
S113051041F42FEB260F05C020E803C020E801C0FA
S113052020E8822F0E94CA018FEC97E00197F1F72F
S113053000C00000089563E082E40E94490064E082
S113054082E40E94490065E082E40E94490066E07A
S113055082E40E94490067E082E40E9449000E940C
S1130560EC0108950E949B0280E690E00E946D02D7
S11305706CE081E00E947A0285E690E00E946D02C0
S113058061E082E00E947A028AE690E00E946D02B5
S11305906CE082E00E947A028FE690E00E946D0295
S11305A063E082E40E944D00813069F58091770018
S11305B08F5F8093770063E081E00E947A028091EC
S11305C07700CDEC8C9F812D112486958695869598
S11305D0805D0E944B02809177008C9FC12D112475
S11305E0C695C695C695CC0F9C2F990F990FC90F28
S11305F08C1B805D0E944B0263E082E40E944D00EC
S11306008130D1F3CAC064E082E40E944D0081309D
S113061069F5809176008F5F809376006EE081E0CB
S11306200E947A0280917600CDEC8C9F812D11245A
S1130630869586958695805D0E944B028091760012
S11306408C9FC12D1124C695C695C695CC0F9C2FA1
S1130650990F990FC90F8C1B805D0E944B0264E0B7
S113066082E40E944D008130D1F397C065E082E4BA
S11306700E944D00813069F5809175008F5F8093F1
S1130680750063E082E00E947A0280917500CDECEF
S11306908C9F812D1124869586958695805D0E9478
S11306A04B02809175008C9FC12D1124C695C6956F
S11306B0C695CC0F9C2F990F990FC90F8C1B805D89
S11306C00E944B0265E082E40E944D008130D1F328
S11306D064C066E082E40E944D00813069F5809137
S11306E074008F5F809374006EE082E00E947A024F
S11306F080917400CDEC8C9F812D11248695869574
S11307008695805D0E944B02809174008C9F912D90
S11307101124969596959695990F292F220F220FBD
S1130720920F891B805D0E944B0266E082E40E9466
S11307304D008130D1F331C067E082E40E944D0066
S1130740813059F510927400109275001092760061
S11307501092770061E00E947A0280E690E00E94A5
S11307606D026CE081E00E947A0285E690E00E94CE
S11307706D0261E082E00E947A028AE690E00E94C3
S11307806D026CE082E00E947A028FE690E00E94A3
S11307906D0261E081E00E947A022FE78AE196E02F
S11307A0215080409040E1F700C00000F9CEF89459
S10507B0FFCF75
S11307B2413D303000423D303000433D3030004452
S10707C23D30300092
S9030000FC
