S01700004763634170706C69636174696F6E312E737265635B
S11300000C942A000C9447000C9447000C9447006D
S11300100C9447000C9447000C9447000C94470040
S11300200C9447000C9447000C94B4010C944700C2
S11300300C9447000C9447000C9447000C94470020
S11300400C9447000C9447000C9447000C94470010
S11300500C94470011241FBECFE5D8E0DEBFCDBF0E
S113006010E0A0E6B0E0E6E1F4E002C005900D92F5
S1130070A437B107D9F720E0A4E7B0E001C01D928E
S1130080A737B207E1F70E944F010C9409020C94C0
S11300900000823419F118F4813439F0089583345E
S11300A0B1F1843409F44CC00895413059F42AB3B1
S11300B081E090E002C0880F991F6A95E2F7822BD5
S11300C08ABB08952AB381E090E002C0880F991F8B
S11300D06A95E2F7809582238ABB0895413059F4EA
S11300E027B381E090E002C0880F991F6A95E2F778
S11300F0822B87BB089527B381E090E002C0880F6C
S1130100991F6A95E2F78095822387BB0895413051
S113011059F424B381E090E002C0880F991F6A95D6
S1130120E2F7822B84BB089524B381E090E002C0FF
S1130130880F991F6A95E2F78095822384BB0895FE
S1130140413059F421B381E090E002C0880F991F37
S11301506A95E2F7822B81BB089521B381E090E098
S113016002C0880F991F6A95E2F78095822381BBAC
S11301700895823419F118F4813439F008958334E0
S1130180B1F1843409F44CC00895413059F42BB3CF
S113019081E090E002C0880F991F6A95E2F7822BF4
S11301A08BBB08952BB381E090E002C0880F991FA8
S11301B06A95E2F7809582238BBB0895413059F408
S11301C028B381E090E002C0880F991F6A95E2F796
S11301D0822B88BB089528B381E090E002C0880F89
S11301E0991F6A95E2F78095822388BB0895413070
S11301F059F425B381E090E002C0880F991F6A95F5
S1130200E2F7822B85BB089525B381E090E002C01C
S1130210880F991F6A95E2F78095822385BB08951C
S1130220413059F422B381E090E002C0880F991F55
S11302306A95E2F7822B82BB089522B381E090E0B5
S113024002C0880F991F6A95E2F78095822382BBCA
S11302500895823459F018F4813431F008958334C8
S113026039F0843439F008956ABB089567BB089562
S113027064BB089561BB0895823459F018F4813445
S113028031F00895833439F0843439F008956BBB28
S1130290089568BB089565BB089562BB08950E94E4
S11302A0FD0184E40E94C8018EE490E00E94F10103
S11302B041E061E081E40E94490041E060E081E4C2
S11302C00E94490041E061E081E40E94B90040E0FD
S11302D060E081E40E94B900609175008DEC689F34
S11302E0812D1124869586958695880F982F990FD0
S11302F0990F890F681B84E40E94CC0180917400DB
S11303008823E1F31092740041E060E081E40E94EC
S1130310B90040E061E081E40E94B9008091750079
S11303206DEC869F612D112466956695669584E42F
S11303300E94CC01809174008823E1F31092740030
S113034080917600843608F4BDCF109276008091B7
S113035075008F5F8093750080917500853109F079
S1130360B1CF10927500AECF1F920F920FB60F92BD
S113037011248F93809176008F5F8093760081E0C3
S1130380809374008F910F900FBE0F901F9018955B
S11303906FEF0E9429010895CF93DF93CDB7DEB7A5
S11303A02A970FB6F894DEBF0FBECDBF9AE0E0E601
S11303B0F0E0DE01119601900D929A95E1F7E1E0EB
S11303C0F0E0EC0FFD1FE60FF11D60810E943C017F
S11303D02A960FB6F894DEBF0FBECDBFDF91CF9142
S11303E0089593B79F7B93BF93B7986093BF8CBFD7
S11303F0789489B7826089BF089583B7816083BF89
S113040083B78D7F83BF83B7846083BF80E090E030
S10904100895F894FFCFEB
S11304163F065B4F666D7D477F6FC0F9A4B0999226
S107042682B8809084
S9030000FC
