:100000000C942A000C9427010C9437010C944C0199
:100010000C943C000C943C000C943C000C940201A9
:100020000C943C000C943C000C943C000C943C0060
:100030000C943C000C943C000C943C000C943C0050
:100040000C943C000C943C000C943C000C943C0040
:100050000C943C0011241FBECFE5D8E0DEBFCDBF1D
:1000600020E0A0E6B0E001C01D92A336B207E1F7A0
:100070000E945E010C946C010C94000084B38062B9
:1000800084BB8AB38F7B8ABB85B3805885BB0895B8
:100090001DBC1CBC80ED93E09BBD8ABD8FB5886004
:1000A0008FBD8EB581608EBD8EB584608EBD8EB5E0
:1000B00088608EBD89B7806189BF089581B38B7FC9
:1000C00081BB82B3846082BB8BB780648BBF85B7F2
:1000D000826085BF08958BB780688BBF85B78460C9
:1000E00085BF85B7886085BF089587B38B7F87BB41
:1000F00088B3846088BB8BB780628BBF84B78F7BEB
:1001000084BF08958BB381608BBB309162009DECFE
:10011000399F812D1124869586958695880F282FE5
:10012000220F220F820F381B35BBE9EFF0E0319729
:10013000F1F700C000008BB382608BBB809162003E
:10014000899F812D112486958695869585BBE9EF3B
:10015000F0E03197F1F700C000008BB384608BBBF7
:1001600030916100399F812D112486958695869561
:10017000880F282F220F220F820F381B35BBE9EF83
:10018000F0E03197F1F700C000008BB388608BBBC3
:1001900080916100899F812D112486958695869591
:1001A00085BBE9EFF0E03197F1F700C000008BB3B9
:1001B00080618BBB30916000399F812D1124869521
:1001C00086958695880F282F220F220F820F381BC5
:1001D00035BBE9EFF0E03197F1F700C000008BB3D9
:1001E00080628BBB80916000899F912D1124969530
:1001F0009695969595BB89EF90E00197F1F700C031
:10020000000008951F920F920FB60F9211248F9342
:10021000809162008F5F809362008C3339F480910B
:1002200061008F5F80936100109262008091610095
:100230008C3339F4809160008F5F8093600010925E
:1002400061008F910F900FBE0F901F9018951F9215
:100250000F920FB60F92112410926000109261005D
:10026000109262000F900FBE0F901F9018951F9272
:100270000F920FB60F9211248F938EB58E7F8EBD85
:100280008EB58D7F8EBD8EB58B7F8EBD8F910F907D
:100290000FBE0F901F9018951F920F920FB60F92DE
:1002A00011248F938EB581608EBD8EB584608EBD16
:1002B0008F910F900FBE0F901F9018950E943E00D7
:1002C00078940E945E000E946B000E9475000E945C
:0C02D00048000E948200FDCFF894FFCF90
:00000001FF
