:100000000C942A000C9447000C9447000C94470071
:100010000C9447000C9447000C9447000C94470044
:100020000C9447000C9447000C9427040C94470050
:100030000C9447000C9447000C9447000C94470024
:100040000C9447000C9447000C9447000C94470014
:100050000C94470011241FBECFE5D8E0DEBFCDBF12
:1000600010E0A0E6B0E0E2ECF8E002C005900D92EE
:10007000A63BB107D9F720E0A6EBB0E001C01D9286
:10008000AF3BB207E1F70E94AC030C945F040C9401
:100090000000823419F118F4813439F00895833462
:1000A000B1F1843409F44CC00895413059F42AB3B5
:1000B00081E090E002C0880F991F6A95E2F7822BD9
:1000C0008ABB08952AB381E090E002C0880F991F8F
:1000D0006A95E2F7809582238ABB0895413059F4EE
:1000E00027B381E090E002C0880F991F6A95E2F77C
:1000F000822B87BB089527B381E090E002C0880F70
:10010000991F6A95E2F78095822387BB0895413055
:1001100059F424B381E090E002C0880F991F6A95DA
:10012000E2F7822B84BB089524B381E090E002C003
:10013000880F991F6A95E2F78095822384BB089502
:10014000413059F421B381E090E002C0880F991F3B
:100150006A95E2F7822B81BB089521B381E090E09C
:1001600002C0880F991F6A95E2F78095822381BBB0
:100170000895823419F118F4813439F008958334E4
:10018000B1F1843409F44CC00895413059F42BB3D3
:1001900081E090E002C0880F991F6A95E2F7822BF8
:1001A0008BBB08952BB381E090E002C0880F991FAC
:1001B0006A95E2F7809582238BBB0895413059F40C
:1001C00028B381E090E002C0880F991F6A95E2F79A
:1001D000822B88BB089528B381E090E002C0880F8D
:1001E000991F6A95E2F78095822388BB0895413074
:1001F00059F425B381E090E002C0880F991F6A95F9
:10020000E2F7822B85BB089525B381E090E002C020
:10021000880F991F6A95E2F78095822385BB089520
:10022000413059F422B381E090E002C0880F991F59
:100230006A95E2F7822B82BB089522B381E090E0B9
:1002400002C0880F991F6A95E2F78095822382BBCE
:1002500008958234E9F018F4813431F055C08334C4
:1002600059F18434E9F150C049B381E090E09C0138
:10027000062E02C0220F331F0A94E2F7842F90E06B
:100280008223932302C0959587956A95E2F7089596
:1002900046B381E090E09C01062E02C0220F331F7E
:1002A0000A94E2F7842F90E08223932302C095956D
:1002B00087956A95E2F7089543B381E090E09C0149
:1002C000062E02C0220F331F0A94E2F7842F90E01B
:1002D0008223932302C0959587956A95E2F7089546
:1002E00040B381E090E09C01062E02C0220F331F34
:1002F0000A94E2F7842F90E08223932302C095951D
:1003000087956A95E2F7089580E00895823419F19F
:1003100018F4813439F008958334B1F1843409F448
:100320004CC00895413059F42BB381E090E002C0F5
:10033000880F991F6A95E2F7822B8BBB08952BB328
:1003400081E090E002C0880F991F6A95E2F78095DE
:1003500082238BBB0895413059F428B381E090E0AB
:1003600002C0880F991F6A95E2F7822B88BB089517
:1003700028B381E090E002C0880F991F6A95E2F7E8
:100380008095822388BB0895413059F425B381E0DC
:1003900090E002C0880F991F6A95E2F7822B85BB17
:1003A000089525B381E090E002C0880F991F6A95F7
:1003B000E2F78095822385BB0895413059F422B33A
:1003C00081E090E002C0880F991F6A95E2F7822BC6
:1003D00082BB089522B381E090E002C0880F991F8C
:1003E0006A95E2F78095822382BB08956295607FCB
:1003F000823479F018F4813431F00895833479F03F
:10040000843499F008958BB38F708BBB8BB3862B9C
:100410008BBB88B38F7088BB88B3862B88BB85B3B2
:100420008F7085BB85B3862B85BB82B38F7082BBF3
:1004300082B3682B62BB089541E060E084E40E94CF
:10044000490041E061E084E40E94490041E062E04B
:1004500084E40E94490041E063E084E40E94490092
:1004600040E064E084E40E94490040E065E084E408
:100470000E94490040E066E084E40E94490040E0B8
:1004800067E084E40E94490041E064E084E40E9463
:10049000860141E065E084E40E94860141E066E077
:1004A00084E40E94860141E067E084E40E948601C2
:1004B0000895FF920F931F93CF93DF93CDB7DEB7CD
:1004C00060970FB6F894DEBF0FBECDBF80E1E0E6C7
:1004D000F0E0DE01119601900D928A95E1F7FF247C
:1004E000FA9400E038C041E060E084E40E94B90082
:1004F00041E061E084E40E94B90041E062E084E40C
:100500000E94B90041E063E084E40E94B90040E049
:10051000602F84E40E94B90010E018C064E0610F0D
:1005200084E40E942901811110C0E02FF0E0EE0F59
:10053000FF1FEE0FFF1F81E090E08C0F9D1FE80F63
:10054000F91FE10FF11DF08003C01F5F143030F37D
:10055000FF2019F00F5F043030F28F2D60960FB638
:10056000F894DEBF0FBECDBFDF91CF911F910F91E9
:10057000FF90089541E060E082E40E94B9008FE9B5
:100580009FE00197F1F700C0000040E060E082E4E6
:100590000E94B9008FE99FE00197F1F700C00000C9
:1005A0000895CF93C82F682F62956F7081E40E94E1
:1005B000F60140E061E082E40E94B9000E94BA02C4
:1005C0006C2F81E40E94F60140E061E082E40E9429
:1005D000B9000E94BA028FEC97E00197F1F700C0D2
:1005E0000000CF9108952FEF81EE94E021508040DC
:1005F0009040E1F700C0000041E064E081E40E9427
:10060000490041E065E081E40E94490041E066E084
:1006100081E40E94490041E067E081E40E944900D2
:1006200041E060E082E40E94490041E062E082E44F
:100630000E94490041E061E082E40E94490040E0FC
:1006400062E082E40E94B90082E00E94D1028FE160
:100650009EE40197F1F700C0000088E20E94D102F9
:100660008FEC97E00197F1F700C000008CE00E944A
:10067000D1028FEC97E00197F1F700C0000081E014
:100680000E94D1028FE19EE40197F1F700C00000C3
:1006900086E00E94D1028FEC97E00197F1F700C04D
:1006A00000000895CF93C82F682F62956F7081E482
:1006B0000E94F60141E061E082E40E94B9000E94DC
:1006C000BA026C2F81E40E94F60141E061E082E40D
:1006D0000E94B9000E94BA028FEC97E00197F1F7EF
:1006E00000C00000CF910895CF93DF93EC0103C0C9
:1006F0000E945203219688818111FACFDF91CF9118
:10070000089581E00E94D1028FE19EE40197F1F704
:1007100000C0000008959FEF980F923070F461318F
:1007200070F4662371F0813019F42FE7260F0AC0A8
:10073000823041F42FEB260F05C020E803C020E8EB
:1007400001C020E8822F0E94D1028FEC97E0019730
:10075000F1F700C0000008950E9453040E94F302C4
:100760008EE490E00E9447040E941C0264E081E055
:100770000E948B0380E790E00E94740364E082E0B3
:100780000E948B038BE790E00E9474038091B80075
:100790009091B9008A3F910544F00E94810381E065
:1007A00090E09093B7008093B6008091B60090914E
:1007B000B700892B59F384E890E00E94740380917C
:1007C000BC009091BD00883E934034F081E090E001
:1007D0009093BB008093BA000E9459028093BE00A0
:1007E0008F3F31F42091BA003091BB00232B39F3B5
:1007F000853359F40E94810364E082E00E948B03F8
:100800008AE890E00E9474031FC08F3F59F40E9451
:10081000810364E082E00E948B0384E990E00E94FF
:10082000740312C00E94810364E081E00E948B0384
:100830008EE990E00E94740364E082E00E948B03E2
:100840008BEA90E00E94740380E090E008951F928C
:100850000F920FB60F9211248F939F938091B8003F
:100860009091B90001969093B9008093B80080915F
:10087000BC009091BD0001969093BD008093BC0098
:100880009F918F910F900FBE0F901F90189593B767
:100890009F7B93BF93B7986093BF8CBF789489B7C1
:1008A000826089BF089583B7816083BF83B78D7FDE
:1008B00083BF83B7846083BF80E090E00895F8949D
:0208C000FFCF68
:1008C2003738392F3435362A3132332D41303D2BEA
:1008D20057454C434F4D4520544F005448452047FF
:1008E200414D4500332B3F3D380057656C6C204429
:1008F2006F6E650054696D65206F766572005752A0
:100902004F4E4720414E535745520047414D4520D7
:060912004F5645520000A3
:00000001FF
