S01700004763634170706C69636174696F6E312E737265635B
S11300000C942A000C943F000C943F000C943F0085
S11300100C943F000C943F000C943F000C943F0060
S11300200C943F000C943F000C943F000C943F0050
S11300300C943F000C943F000C943F000C943F0040
S11300400C943F000C943F000C943F000C943F0030
S11300500C943F0011241FBECFE5D8E0DEBFCDBF16
S113006010E0A0E6B0E0E4E2FAE002C005900D92F0
S1130070AC37B107D9F70E9439020C9410050C94DF
S11300800000823419F118F4813439F0089583346E
S1130090B1F1843409F44CC00895413059F42AB3C1
S11300A081E090E002C0880F991F6A95E2F7822BE5
S11300B08ABB08952AB381E090E002C0880F991F9B
S11300C06A95E2F7809582238ABB0895413059F4FA
S11300D027B381E090E002C0880F991F6A95E2F788
S11300E0822B87BB089527B381E090E002C0880F7C
S11300F0991F6A95E2F78095822387BB0895413062
S113010059F424B381E090E002C0880F991F6A95E6
S1130110E2F7822B84BB089524B381E090E002C00F
S1130120880F991F6A95E2F78095822384BB08950E
S1130130413059F421B381E090E002C0880F991F47
S11301406A95E2F7822B81BB089521B381E090E0A8
S113015002C0880F991F6A95E2F78095822381BBBC
S11301600895823419F118F4813439F008958334F0
S1130170B1F1843409F44CC00895413059F42BB3DF
S113018081E090E002C0880F991F6A95E2F7822B04
S11301908BBB08952BB381E090E002C0880F991FB8
S11301A06A95E2F7809582238BBB0895413059F418
S11301B028B381E090E002C0880F991F6A95E2F7A6
S11301C0822B88BB089528B381E090E002C0880F99
S11301D0991F6A95E2F78095822388BB0895413080
S11301E059F425B381E090E002C0880F991F6A9505
S11301F0E2F7822B85BB089525B381E090E002C02D
S1130200880F991F6A95E2F78095822385BB08952C
S1130210413059F422B381E090E002C0880F991F65
S11302206A95E2F7822B82BB089522B381E090E0C5
S113023002C0880F991F6A95E2F78095822382BBDA
S113024008956295607F823479F018F4813431F036
S11302500895833479F0843499F008958BB38F70C2
S11302608BBB8BB3862B8BBB88B38F7088BB88B357
S1130270862B88BB85B38F7085BB85B3862B85BBE6
S113028082B38F7082BB82B3682B62BB089541E056
S113029060E082E40E94B1008FE99FE00197F1F7EA
S11302A000C0000040E060E082E40E94B1008FE9F9
S11302B09FE00197F1F700C000000895CF93C82F85
S11302C0682F62956F7081E40E94210140E061E033
S11302D082E40E94B1000E9447016C2F81E40E94D5
S11302E0210140E061E082E40E94B1000E944701E4
S11302F08FEC97E00197F1F700C00000CF910895CB
S11303002FEF81EE94E0215080409040E1F700C04F
S1130310000041E064E081E40E94410041E065E0C6
S113032081E40E94410041E066E081E40E944100D2
S113033041E067E081E40E94410041E060E082E442
S11303400E94410041E062E082E40E94410041E0F9
S113035061E082E40E94410040E062E082E40E94A5
S1130360B10082E00E945E018FE19EE40197F1F703
S113037000C0000088E20E945E018FEC97E00197C4
S1130380F1F700C000008CE00E945E018FEC97E062
S11303900197F1F700C0000081E00E945E018FE147
S11303A09EE40197F1F700C0000086E00E945E0120
S11303B08FEC97E00197F1F700C000000895CF9308
S11303C0C82F682F62956F7081E40E94210141E07B
S11303D061E082E40E94B1000E9447016C2F81E435
S11303E00E94210141E061E082E40E94B1000E9488
S11303F047018FEC97E00197F1F700C00000CF911F
S11304000895CF93DF93EC0103C00E94DF0121968E
S113041088818111FACFDF91CF91089581E00E9404
S11304205E018FE19EE40197F1F700C0000008959A
S11304309FEF980F923070F4613170F4662371F07D
S1130440813019F42FE7260F0AC0823041F42FEBD4
S1130450260F05C020E803C020E801C020E8822F51
S11304600E945E018FEC97E00197F1F700C0000055
S113047008950E9480011FBC88B7806288BF81EC08
S11304808EBD08B605FEFDCF86B597B528B72062A8
S113049028BF21E82EBD08B605FEFDCF66B577B5A9
S11304A028B7206228BF21EC2EBD08B605FEFDCF7B
S11304B0C6B4D7B428B7206228BF1EBC86179707D6
S11304C008F0DAC06C157D0508F0D6C0681B790BFE
S11304D0C81AD90A80E090E00E94E4034B015C0151
S11304E0E12CF12CC701B6010E94E4039B01AC018D
S11304F0C501B4010E94430320E030E048EC52E41B
S11305000E9472040E94B5034B015C0160E072E139
S11305108AE790E0A70196010E94DF0469017A014D
S113052080E690E00E9401029401ADECBCEC0E94D4
S11305300105EC01D695C795D695C795D695C7956F
S11305408C2F805D0E94DF019401CE01880F991FDA
S1130550CC0FDD1FCC0FDD1FCC0FDD1F8C0F9D1FBB
S1130560281B390BC901805D0E94DF0185E20E94CE
S1130570DF0161E082E00E94180286E690E00E94BA
S11305800102960136952795369527953695279538
S1130590A5ECB0E20E940105929582958F7089279F
S11305A09F708927805D0E94DF019601369527950B
S11305B036952795ABE7B4E10E940105AC01569549
S11305C047959A01ADECBCEC0E9401059695879580
S11305D096958795969587959C01220F331F880FD2
S11305E0991F880F991F880F991F820F931F9A01D3
S11305F0281B390BC901805D0E94DF019601ADEC17
S1130600BCEC0E940105EC01D695C795D695C7951B
S1130610D695C7959E010E94010596958795969556
S11306208795969587959C01220F331F880F991FF4
S1130630880F991F880F991F820F931F9E01281BF3
S1130640390BC901805D0E94DF019601CE01880F3C
S1130650991FCC0FDD1FCC0FDD1FCC0FDD1F8C0FBE
S11306609D1F281B390BC901805D0E94DF018CE6A8
S113067090E00E94010206C00E940E028FE690E004
S11306800E940102FFCF0E9457030C9438040E9479
S1130690310458F00E942A0440F029F45F3F29F005
S11306A00C94210451110C946C040C9427040E94A2
S11306B0490468F39923B1F3552391F3951B550B22
S11306C0BB27AA2762177307840738F09F5F5F4F21
S11306D0220F331F441FAA1FA9F335D00E2E3AF060
S11306E0E0E832D091505040E695001CCAF72BD078
S11306F0FE2F29D0660F771F881FBB1F26173707C9
S11307004807AB07B0E809F0BB0B802DBF01FF27FA
S113071093585F4F3AF09E3F510578F00C942104B2
S11307200C946C045F3FE4F3983ED4F3869577957C
S11307306795B795F7959F5FC9F7880F911D9695B3
S1130740879597F90895E1E0660F771F881FBB1F0F
S1130750621773078407BA0720F0621B730B840BBC
S1130760BA0BEE1F88F7E09508950E94510488F0B3
S11307709F5798F0B92F9927B751B0F0E1F0660F61
S1130780771F881F991F1AF0BA95C9F714C0B130A2
S113079091F00E946B04B1E008950C946B04672FF0
S11307A0782F8827B85F39F0B93FCCF386957795D1
S11307B06795B395D9F73EF49095809570956195BA
S11307C07F4F8F4F9F4F0895E89409C097FB3EF4E5
S11307D090958095709561957F4F8F4F9F4F99238A
S11307E0A9F0F92F96E9BB279395F6958795779508
S11307F06795B795F111F8CFFAF4BB0F11F460FFC8
S11308001BC06F5F7F4F8F4F9F4F16C0882311F01F
S113081096E911C0772321F09EE8872F762F05C033
S1130820662371F096E8862F70E060E02AF09A95CE
S1130830660F771F881FDAF7880F9695879597F9C3
S1130840089597F99F6780E870E060E008959FEF4E
S113085080EC089500240A94161617061806090653
S1130860089500240A941216130614060506089522
S1130870092E0394000C11F4882352F0BB0F40F4AA
S1130880BF2B11F460FF04C06F5F7F4F8F4F9F4FEA
S1130890089557FD9058440F551F59F05F3F71F06C
S11308A04795880F97FB991F61F09F3F79F08795D3
S11308B00895121613061406551FF2CF4695F1DF5C
S11308C008C0161617061806991FF1CF86957105EC
S11308D0610508940895E894BB2766277727CB0120
S11308E097F908950E9485040C9438040E942A0400
S11308F038F00E94310420F0952311F00C94210467
S11309000C94270411240C946C040E94490470F381
S1130910959FC1F3950F50E0551F629FF001729FA0
S1130920BB27F00DB11D639FAA27F00DB11DAA1FAF
S1130930649F6627B00DA11D661F829F2227B00DFC
S1130940A11D621F739FB00DA11D621F839FA00D87
S1130950611D221F749F3327A00D611D231F849FD7
S1130960600D211D822F762F6A2F11249F5750402E
S11309709AF0F1F088234AF0EE0FFF1FBB1F661FA9
S1130980771F881F91505040A9F79E3F510580F072
S11309900C9421040C946C045F3FE4F3983ED4F36C
S11309A0869577956795B795F795E7959F5FC1F716
S11309B0FE2B880F911D9695879597F90895A1E2CE
S11309C01A2EAA1BBB1BFD010DC0AA1FBB1FEE1FC5
S11309D0FF1FA217B307E407F50720F0A21BB30B10
S11309E0E40BF50B661F771F881F991F1A9469F78C
S11309F060957095809590959B01AC01BD01CF01E8
S1130A000895A29FB001B39FC001A39F700D811DE3
S1130A101124911DB29F700D811D1124911D089503
S1070A20F894FFCF74
S1130A24647574793A00667265713A00485A006FC5
S10F0A347574206F662072616E676500A7
S9030000FC
