S01700004763634170706C69636174696F6E312E737265635B
S11300000C942A000C9447000C9447000C9447006D
S11300100C9447000C9447000C9447000C94470040
S11300200C9447000C9447000C9452030C94470022
S11300300C9447000C9447000C9447000C94470020
S11300400C9447000C9447000C9447000C94470010
S11300500C94470011241FBECFE5D8E0DEBFCDBF0E
S113006010E0A0E6B0E0E2E2F7E002C005900D92F5
S1130070A03BB107D9F720E0A0EBB0E001C01D928E
S1130080A33BB207E1F70E944D020C948F030C943A
S11300900000823419F118F4813439F0089583345E
S11300A0B1F1843409F44CC00895413059F42AB3B1
S11300B081E090E002C0880F991F6A95E2F7822BD5
S11300C08ABB08952AB381E090E002C0880F991F8B
S11300D06A95E2F7809582238ABB0895413059F4EA
S11300E027B381E090E002C0880F991F6A95E2F778
S11300F0822B87BB089527B381E090E002C0880F6C
S1130100991F6A95E2F78095822387BB0895413051
S113011059F424B381E090E002C0880F991F6A95D6
S1130120E2F7822B84BB089524B381E090E002C0FF
S1130130880F991F6A95E2F78095822384BB0895FE
S1130140413059F421B381E090E002C0880F991F37
S11301506A95E2F7822B81BB089521B381E090E098
S113016002C0880F991F6A95E2F78095822381BBAC
S11301700895823419F118F4813439F008958334E0
S1130180B1F1843409F44CC00895413059F42BB3CF
S113019081E090E002C0880F991F6A95E2F7822BF4
S11301A08BBB08952BB381E090E002C0880F991FA8
S11301B06A95E2F7809582238BBB0895413059F408
S11301C028B381E090E002C0880F991F6A95E2F796
S11301D0822B88BB089528B381E090E002C0880F89
S11301E0991F6A95E2F78095822388BB0895413070
S11301F059F425B381E090E002C0880F991F6A95F5
S1130200E2F7822B85BB089525B381E090E002C01C
S1130210880F991F6A95E2F78095822385BB08951C
S1130220413059F422B381E090E002C0880F991F55
S11302306A95E2F7822B82BB089522B381E090E0B5
S113024002C0880F991F6A95E2F78095822382BBCA
S113025008956295607F823479F018F4813431F026
S11302600895833479F0843499F008958BB38F70B2
S11302708BBB8BB3862B8BBB88B38F7088BB88B347
S1130280862B88BB85B38F7085BB85B3862B85BBD6
S113029082B38F7082BB82B3682B62BB089541E046
S11302A060E082E40E94B9008FE99FE00197F1F7D2
S11302B000C0000040E060E082E40E94B9008FE9E1
S11302C09FE00197F1F700C000000895CF93C82F75
S11302D0682F62956F7081E40E94290140E061E01B
S11302E082E40E94B9000E944F016C2F81E40E94B5
S11302F0290140E061E082E40E94B9000E944F01BC
S11303008FEC97E00197F1F700C00000CF910895BA
S11303102FEF81EE94E0215080409040E1F700C03F
S1130320000041E064E081E40E94490041E065E0AE
S113033081E40E94490041E066E081E40E944900B2
S113034041E067E081E40E94490041E060E082E42A
S11303500E94490041E062E082E40E94490041E0D9
S113036061E082E40E94490040E062E082E40E948D
S1130370B90082E00E9466018FE19EE40197F1F7E3
S113038000C0000088E20E9466018FEC97E00197AC
S1130390F1F700C000008CE00E9466018FEC97E04A
S11303A00197F1F700C0000081E00E9466018FE12F
S11303B09EE40197F1F700C0000086E00E94660108
S11303C08FEC97E00197F1F700C000000895CF93F8
S11303D0C82F682F62956F7081E40E94290141E063
S11303E061E082E40E94B9000E944F016C2F81E415
S11303F00E94290141E061E082E40E94B9000E9468
S11304004F018FEC97E00197F1F700C00000CF9106
S11304100895CF93DF93EC0103C00E94E701219676
S113042088818111FACFDF91CF91089581E00E94F4
S113043066018FE19EE40197F1F700C00000089582
S11304409FEF980F923070F4613170F4662371F06D
S1130450813019F42FE7260F0AC0823041F42FEBC4
S1130460260F05C020E803C020E801C020E8822F41
S11304700E9466018FEC97E00197F1F700C000003D
S1130480089541E00E944900089541E00E94B900A6
S1130490089540E00E94B90008950E9474038EE418
S11304A090E00E9468030E94880162E084E40E9454
S11304B0410261E084E40E94410260E084E40E941D
S11304C041020E94160280E690E00E94090260E068
S11304D084E40E944502CDE0D0E034C08091B200B3
S11304E0843680F11092B20021976BE081E00E9483
S11304F020029E01ADECBCEC0E9480038C01169599
S11305000795169507951695079580E3800F0E9429
S1130510E701C801880F991F000F111F000F111F59
S1130520000F111F080F191FCE01801B910B805D56
S11305300E94E70161E082E00E94200281E790E0EE
S11305400E940902209751F62FEF84E39CE021508A
S113055080409040E1F700C0000060E084E40E9425
S1130560490261E084E40E9445020E9416028FE77A
S113057090E00E940902C8E0D0E02CC08091B20053
S1130580843640F11092B20021976BE081E00E9422
S113059020029E01ADECBCEC0E9480038C011695F8
S11305A00795169507951695079580E3800F0E9489
S11305B0E701C801880F991F000F111F000F111FB9
S11305C0000F111F080F191FCE01801B910B805DB6
S11305D00E94E701209791F68091B100823328F0C0
S11305E081E08093B0001092B2008091B000882323
S11305F099F361E084E40E94490262E084E40E9489
S113060045020E94160280E990E00E940902CCE0B3
S1130610D0E034C08091B200843680F11092B200F0
S113062021976BE081E00E9420029E01ADECBCECBE
S11306300E9480038C0116950795169507951695CB
S1130640079580E3800F0E94E701C801880F991F76
S1130650000F111F000F111F000F111F080F191F8A
S1130660CE01801B910B805D0E94E70161E082E076
S11306700E94200281EA90E00E940902209751F62C
S11306808091B100823318F081E08093B000109221
S1130690B2008091B000882399F362E084E40E9460
S11306A049020FCF1F920F920FB60F9211248F930E
S11306B08091B2008F5F8093B2008091B1008F5F10
S11306C08093B1008F910F900FBE0F901F901895DB
S11306D093B79F7B93BF93B7986093BF8CBF789475
S11306E089B7826089BF089583B7816083BF83B768
S11306F08D7F83BF83B7846083BF80E090E00895DB
S1130700A29FB001B39FC001A39F700D811D11244E
S1130710911DB29F700D811D1124911D0895F894AF
S1050720FFCF05
S113072252656D61696E696E67203133207365634A
S113073200476F2E2E2E2E2E2E2E2E2E2E2E0052B1
S1130742656D61696E696E67203038207365630078
S113075252656D61696E696E67203132207365631B
S11307620053746F702021212121212121210000B5
S9030000FC
