:100000000C942A000C9447000C9447000C94470071
:100010000C9447000C9447000C9447000C94470044
:100020000C9447000C9447000C9447000C94470034
:100030000C9447000C9447000C9447000C94470024
:100040000C9447000C9447000C9447000C94470014
:100050000C94470011241FBECFE5D8E0DEBFCDBF12
:1000600010E0A0E6B0E0E0E2F3E002C005900D92FF
:10007000A036B107D9F720E0A0E6B0E001C01D929C
:10008000A136B207E1F70E9435010C948E010C9461
:100090000000823419F118F4813439F00895833462
:1000A000B1F1843409F44CC00895413059F42AB3B5
:1000B00081E090E002C0880F991F6A95E2F7822BD9
:1000C0008ABB08952AB381E090E002C0880F991F8F
:1000D0006A95E2F7809582238ABB0895413059F4EE
:1000E00027B381E090E002C0880F991F6A95E2F77C
:1000F000822B87BB089527B381E090E002C0880F70
:10010000991F6A95E2F78095822387BB0895413055
:1001100059F424B381E090E002C0880F991F6A95DA
:10012000E2F7822B84BB089524B381E090E002C003
:10013000880F991F6A95E2F78095822384BB089502
:10014000413059F421B381E090E002C0880F991F3B
:100150006A95E2F7822B81BB089521B381E090E09C
:1001600002C0880F991F6A95E2F78095822381BBB0
:100170000895823419F118F4813439F008958334E4
:10018000B1F1843409F44CC00895413059F42BB3D3
:1001900081E090E002C0880F991F6A95E2F7822BF8
:1001A0008BBB08952BB381E090E002C0880F991FAC
:1001B0006A95E2F7809582238BBB0895413059F40C
:1001C00028B381E090E002C0880F991F6A95E2F79A
:1001D000822B88BB089528B381E090E002C0880F8D
:1001E000991F6A95E2F78095822388BB0895413074
:1001F00059F425B381E090E002C0880F991F6A95F9
:10020000E2F7822B85BB089525B381E090E002C020
:10021000880F991F6A95E2F78095822385BB089520
:10022000413059F422B381E090E002C0880F991F59
:100230006A95E2F7822B82BB089522B381E090E0B9
:1002400002C0880F991F6A95E2F78095822382BBCE
:10025000089541E00E944900089541E00E94B900DC
:10026000089540E00E94B90008950E9482018AEF3B
:1002700090E00E94760163E084E40E94290162E03C
:1002800083E40E94290167E083E40E9429017894B5
:10029000809160008F5F809360008A3071F018F465
:1002A000853031F0F5CF8F3069F0843181F0F0CFB7
:1002B00063E084E40E943101EBCF62E083E40E94BA
:1002C0003101E6CF67E083E40E943101E1CF63E0D2
:1002D00084E40E942D0162E083E40E942D0167E026
:1002E00083E40E942D0110926000D2CF93B79F7BD0
:1002F00093BF93B7986093BF8CBF789489B782609F
:1003000089BF089583B7816083BF83B7826083BF4D
:1003100083B78B7F83BF80E090E00895F894FFCF90
:00000001FF
