:100000000C942A000C943F000C943F000C943F0089
:100010000C943F000C943F000C943F000C943F0064
:100020000C943F000C943F000C943F000C943F0054
:100030000C943F000C943F000C943F000C943F0044
:100040000C943F000C943F000C943F000C943F0034
:100050000C943F0011241FBECFE5D8E0DEBFCDBF1A
:1000600010E0A0E6B0E0E4E0F7E002C005900D92F9
:10007000A037B107D9F70E946C030C9480030C944D
:100080000000823419F118F4813439F00895833472
:10009000B1F1843409F44CC00895413059F42AB3C5
:1000A00081E090E002C0880F991F6A95E2F7822BE9
:1000B0008ABB08952AB381E090E002C0880F991F9F
:1000C0006A95E2F7809582238ABB0895413059F4FE
:1000D00027B381E090E002C0880F991F6A95E2F78C
:1000E000822B87BB089527B381E090E002C0880F80
:1000F000991F6A95E2F78095822387BB0895413066
:1001000059F424B381E090E002C0880F991F6A95EA
:10011000E2F7822B84BB089524B381E090E002C013
:10012000880F991F6A95E2F78095822384BB089512
:10013000413059F421B381E090E002C0880F991F4B
:100140006A95E2F7822B81BB089521B381E090E0AC
:1001500002C0880F991F6A95E2F78095822381BBC0
:100160000895823419F118F4813439F008958334F4
:10017000B1F1843409F44CC00895413059F42BB3E3
:1001800081E090E002C0880F991F6A95E2F7822B08
:100190008BBB08952BB381E090E002C0880F991FBC
:1001A0006A95E2F7809582238BBB0895413059F41C
:1001B00028B381E090E002C0880F991F6A95E2F7AA
:1001C000822B88BB089528B381E090E002C0880F9D
:1001D000991F6A95E2F78095822388BB0895413084
:1001E00059F425B381E090E002C0880F991F6A9509
:1001F000E2F7822B85BB089525B381E090E002C031
:10020000880F991F6A95E2F78095822385BB089530
:10021000413059F422B381E090E002C0880F991F69
:100220006A95E2F7822B82BB089522B381E090E0C9
:1002300002C0880F991F6A95E2F78095822382BBDE
:1002400008958234E9F018F4813431F055C08334D4
:1002500059F18434E9F150C049B381E090E09C0148
:10026000062E02C0220F331F0A94E2F7842F90E07B
:100270008223932302C0959587956A95E2F70895A6
:1002800046B381E090E09C01062E02C0220F331F8E
:100290000A94E2F7842F90E08223932302C095957D
:1002A00087956A95E2F7089543B381E090E09C0159
:1002B000062E02C0220F331F0A94E2F7842F90E02B
:1002C0008223932302C0959587956A95E2F7089556
:1002D00040B381E090E09C01062E02C0220F331F44
:1002E0000A94E2F7842F90E08223932302C095952D
:1002F00087956A95E2F7089580E00895823419F1B0
:1003000018F4813439F008958334B1F1843409F458
:100310004CC00895413059F42BB381E090E002C005
:10032000880F991F6A95E2F7822B8BBB08952BB338
:1003300081E090E002C0880F991F6A95E2F78095EE
:1003400082238BBB0895413059F428B381E090E0BB
:1003500002C0880F991F6A95E2F7822B88BB089527
:1003600028B381E090E002C0880F991F6A95E2F7F8
:100370008095822388BB0895413059F425B381E0EC
:1003800090E002C0880F991F6A95E2F7822B85BB27
:10039000089525B381E090E002C0880F991F6A9507
:1003A000E2F78095822385BB0895413059F422B34A
:1003B00081E090E002C0880F991F6A95E2F7822BD6
:1003C00082BB089522B381E090E002C0880F991F9C
:1003D0006A95E2F78095822382BB08956295607FDB
:1003E000823479F018F4813431F00895833479F04F
:1003F000843499F008958BB38F708BBB8BB3862BAD
:100400008BBB88B38F7088BB88B3862B88BB85B3C2
:100410008F7085BB85B3862B85BB82B38F7082BB03
:1004200082B3682B62BB089541E060E084E40E94DF
:10043000410041E061E084E40E94410041E062E06B
:1004400084E40E94410041E063E084E40E944100B2
:1004500040E064E084E40E94410040E065E084E420
:100460000E94410040E066E084E40E94410040E0D8
:1004700067E084E40E94410041E064E084E40E947B
:100480007E0141E065E084E40E947E0141E066E097
:1004900084E40E947E0141E067E084E40E947E01E2
:1004A0000895FF920F931F93CF93DF93CDB7DEB7DD
:1004B00060970FB6F894DEBF0FBECDBF80E1E0E6D7
:1004C000F0E0DE01119601900D928A95E1F7FF248C
:1004D000FA9400E038C041E060E084E40E94B1009A
:1004E00041E061E084E40E94B10041E062E084E424
:1004F0000E94B10041E063E084E40E94B10040E06A
:10050000602F84E40E94B10010E018C064E0610F25
:1005100084E40E942101811110C0E02FF0E0EE0F71
:10052000FF1FEE0FFF1F81E090E08C0F9D1FE80F73
:10053000F91FE10FF11DF08003C01F5F143030F38D
:10054000FF2019F00F5F043030F28F2D60960FB648
:10055000F894DEBF0FBECDBFDF91CF911F910F91F9
:10056000FF90089541E060E082E40E94B1008FE9CD
:100570009FE00197F1F700C0000040E060E082E4F6
:100580000E94B1008FE99FE00197F1F700C00000E1
:100590000895CF93C82F682F62956F7081E40E94F1
:1005A000EE0140E061E082E40E94B1000E94B202EC
:1005B0006C2F81E40E94EE0140E061E082E40E9441
:1005C000B1000E94B2028FEC97E00197F1F700C0F2
:1005D0000000CF9108952FEF81EE94E021508040EC
:1005E0009040E1F700C0000041E064E081E40E9437
:1005F000410041E065E081E40E94410041E066E0A5
:1006000081E40E94410041E067E081E40E944100F2
:1006100041E060E082E40E94410041E062E082E467
:100620000E94410041E061E082E40E94410040E01C
:1006300062E082E40E94B10082E00E94C9028FE180
:100640009EE40197F1F700C0000088E20E94C90211
:100650008FEC97E00197F1F700C000008EE00E9458
:10066000C9028FEC97E00197F1F700C0000081E02C
:100670000E94C9028FE19EE40197F1F700C00000DB
:1006800086E00E94C9028FEC97E00197F1F700C065
:1006900000000895CF93C82F682F62956F7081E492
:1006A0000E94EE0141E061E082E40E94B1000E94FC
:1006B000B2026C2F81E40E94EE0141E061E082E42D
:1006C0000E94B1000E94B2028FEC97E00197F1F70F
:1006D00000C00000CF9108950E94EB020E94140216
:1006E0000E9451028F3F11F00E944A032FE78AE1D6
:1006F00096E0215080409040E1F700C00000F0CF2C
:04070000F894FFCF9B
:100704003738392F3435362A3132332D41303D2BA9
:00000001FF
